:020000040000FA
:04000000FEEFFFF020
:020000040001F9
:10FEFC00120012001200000EC66E000E0401006FFC
:10FF0C00800EBE6E120001EE01F10D0EEE6AE806D7
:10FF1C00FDE10001A3EFFFF0000E096E000E0A6E6A
:10FF2C00000E0B6E000E0C6E000E056E000E066EB3
:10FF3C00000E076E000E086E1200048E7EECFFF0B1
:10FF4C0092ECFFF081ECFFF080ECFFF0B4ECFFF0F2
:10FF5C007FECFFF0ACEFFFF0FEEFFFF0000E0E6E4B
:10FF6C00000E0F6E000E106E000E116EDCEFFFF027
:10FF7C00010E0E26000E0F221022112211500DE13F
:10FF8C00810E0E5C1A0E0F58060E1058D8A0D1EF29
:10FF9C00FFF0D3EFFFF0BEEFFFF0000E0E6E000E81
:10FFAC000F6E000E106E000E116EBE2ABE0EBE64D9
:10FFBC00E2EFFFF0E4EFFFF0C4EFFFF0ECEFFFF047
:10FFCC00010E0E26000E0F221022112211500DE1EF
:10FFDC00810E0E5C1A0E0F58060E1058D8A0F9EFB1
:10FFEC00FFF0FBEFFFF0E6EFFFF0800EBE6E1200AD
:04FFFC0089EFFFF09A
:020000040020DA
:10000000FF0FFF0FFF0FFF0FFF0FFF0FFF0FFF0F80
:10001000FF0FFF0FFF0FFF0FFF0FFF0FFF0FFF0F70
:020000040030CA
:0A0000008CFEFFFC9FFFFFFFFFFFD7
:00000001FF
