:020000040000FA
:04000000FEEFFFF020
:020000040001F9
:10FF320012001200000EC66E000E0401006F800E49
:10FF4200BE6E1200800EBE6E900E03011A6F540E2A
:10FF52001B6F120001EE01F10E0EEE6AE806FDE1E2
:10FF62000001DEEFFFF0100E03011A6F61003CF496
:10FF720018F31050196FB19E900E1A6F12000D2ACD
:10FF82006100F8F20FF5800E0F160D503F0B0F12A5
:10FF920061003CF4BEF41200000E096E000E0A6EFF
:10FFA200000E0B6E000E0C6E000E056E000E066E3D
:10FFB200000E076E000E086E1200048E99ECFFF020
:10FFC200CDECFFF09BECFFF0A3ECFFF0C0ECFFF0F8
:10FFD200BE9E9AECFFF0030E106EE80E0F6EB4ECAC
:10FFE200FFF0B1AEF7EFFFF0F9EFFFF0F2EFFFF045
:0EFFF200BE8EE7EFFFF0FEEFFFF0ABEFFFF08B
:020000040020DA
:10000000FF0FFF0FFF0FFF0FFF0FFF0FFF0FFF0F80
:10001000FF0FFF0FFF0FFF0FFF0FFF0FFF0FFF0F70
:020000040030CA
:0A0000008CFEFFFC9FFFFFFFFFFFD7
:00000001FF
