:020000040000FA
:04000000FEEFFFF020
:020000040001F9
:10FF7600120012001200CFAAC3EFFFF0C5EFFFF088
:10FF8600C6EFFFF0BE2A120001EE01F10D0EEE6A79
:10FF9600E806FDE10001EDEFFFF0000EC66E000E73
:10FFA6000401006F800EBE6E000E086F200EC76E35
:10FFB6001200000E096E000E0A6E000E0B6E000E89
:10FFC6000C6E000E056E000E066E000E076E000E1D
:10FFD600086E1200048EBBECFFF0DCECFFF0D0ECF8
:10FFE600FFF0BDECFFF0BEECFFF0BCECFFF0F6EF6F
:0AFFF600FFF0FEEFFFF0C7EFFFF091
:020000040020DA
:10000000FF0FFF0FFF0FFF0FFF0FFF0FFF0FFF0F80
:10001000FF0FFF0FFF0FFF0FFF0FFF0FFF0FFF0F70
:020000040030CA
:0A0000008CFEFFFC9FFFFFFFFFFFD7
:00000001FF
