:020000040000FA
:04000000FEEFFFF020
:020000040001F9
:10FF160012001200120001EE01F1150EEE6AE8065B
:10FF2600FDE10001B4EFFFF0000EC66E000E040105
:10FF3600006F800EBE6E000E086F200EC76E120098
:10FF4600000E116E000E126E000E136E000E146E71
:10FF5600000E0D6E000E0E6E000E0F6E000E106E71
:10FF660012000C8E8BECFFF0A3ECFFF097ECFFF089
:10FF76008DECFFF0C5ECFFF08CECFFF0BDEFFFF071
:10FF8600FEEFFFF061003CF316F5200E1616165034
:10FF9600176E186A196A1A6A200E1718181019109F
:10FFA6001A10D8A4D9EFFFF0DBEFFFF0FDEFFFF05A
:10FFB6000150021003100410D8A4E4EFFFF0E6EF9E
:10FFC600FFF0FDEFFFF017C501F518C502F519C5DD
:10FFD60003F51AC504F5010E0526000E06220722B2
:10FFE60008223F0E0516000E0616071608160550BF
:0AFFF600800FBE6E12008EEFFFF0C8
:020000040020DA
:10000000FF0FFF0FFF0FFF0FFF0FFF0FFF0FFF0F80
:10001000FF0FFF0FFF0FFF0FFF0FFF0FFF0FFF0F70
:020000040030CA
:0A0000008CFEFFFC9FFFFFFFFFFFD7
:00000001FF
